{
  "contractName": "Krutik_19IT035",
  "abi": [
    {
      "inputs": [
        {
          "internalType": "uint256",
          "name": "_initialSupply",
          "type": "uint256"
        }
      ],
      "stateMutability": "nonpayable",
      "type": "constructor"
    },
    {
      "inputs": [
        {
          "internalType": "address",
          "name": "",
          "type": "address"
        }
      ],
      "name": "balanceOf",
      "outputs": [
        {
          "internalType": "uint256",
          "name": "",
          "type": "uint256"
        }
      ],
      "stateMutability": "view",
      "type": "function"
    },
    {
      "inputs": [],
      "name": "totalSupply",
      "outputs": [
        {
          "internalType": "uint256",
          "name": "",
          "type": "uint256"
        }
      ],
      "stateMutability": "view",
      "type": "function"
    }
  ],
  "bytecode": "0x608060405234801561001057600080fd5b506040516102573803806102578339818101604052810190610032919061007a565b80600081905550506100a7565b600080fd5b6000819050919050565b61005781610044565b811461006257600080fd5b50565b6000815190506100748161004e565b92915050565b6000602082840312156100905761008f61003f565b5b600061009e84828501610065565b91505092915050565b6101a1806100b66000396000f3fe608060405234801561001057600080fd5b50600436106100365760003560e01c806318160ddd1461003b57806370a0823114610059575b600080fd5b610043610089565b60405161005091906100c0565b60405180910390f35b610073600480360381019061006e919061013e565b61008f565b60405161008091906100c0565b60405180910390f35b60005481565b60016020528060005260406000206000915090505481565b6000819050919050565b6100ba816100a7565b82525050565b60006020820190506100d560008301846100b1565b92915050565b600080fd5b600073ffffffffffffffffffffffffffffffffffffffff82169050919050565b600061010b826100e0565b9050919050565b61011b81610100565b811461012657600080fd5b50565b60008135905061013881610112565b92915050565b600060208284031215610154576101536100db565b5b600061016284828501610129565b9150509291505056fea2646970667358221220922b8150ecd6aed800d71f0307c7c5735fa9d42af01424ac0607414d659e055c64736f6c634300080f0033",
  "immutableReferences": {},
  "source": "// SPDX-License-Identifier: MiT\r\n\r\npragma solidity ^0.8.10;\r\n\r\ncontract Krutik_19IT035 {\r\n    uint256 public totalSupply;\r\n    mapping(address => uint256) public balanceOf;\r\n\r\n    constructor(uint256 _initialSupply) {\r\n        totalSupply = _initialSupply;\r\n        // allocate initial supply\r\n        \r\n    }\r\n}\r\n",
  "sourcePath": "E:\\sem 7\\BT\\Practical\\practical-1\\token_19IT035\\contracts\\Krutik_19IT035.sol",
  "compiler": {
    "name": "solc",
    "version": "0.8.15+commit.e14f2714.Emscripten.clang"
  },
  "schemaVersion": "3.4.4",
  "updatedAt": "2022-07-23T09:58:46.885Z",
  "devdoc": {
    "kind": "dev",
    "methods": {},
    "version": 1
  },
  "userdoc": {
    "kind": "user",
    "methods": {},
    "version": 1
  }
}